:100000000C94E7010C9406020C9406020C94060270
:100010000C9406020C9406020C9406020C94060240
:100020000C9406020C94A1120C9406020C945F121C
:100030000C9406020C9406020C9406020C94060220
:100040000C9406020C9406020C9406020C94060210
:100050000C9406020C9406020C9406020C94060200
:100060000C9406020C9406020C9406020C940602F0
:100070000C9406020C9472020C9406020C94060274
:100080000C9406020C9406020C9406020C940602D0
:100090000C9436020C9455020C9406020C94060241
:1000A0000C9406020C9406020C9406020C940602B0
:1000B0000C9406020C9406020C9406020C9408029E
:1000C0000C9406020C9406020C9406020C94060290
:1000D0000C9406020C9406020C9406020C94060280
:1000E0000C940602F911FF11091212123212381281
:1000F0009D11BD11E511C814BB14AA149D149014D0
:100100006D14B514072C7AA5BA6CC590DA3B9365CB
:10011000FC8BBC53F810FD3C5692834DBD879D3A35
:10012000B63DCBC9BF5BBE73DA0FC93F05A84CCD46
:10013000B2D44EB93836A9020C50B9918688083C21
:10014000A6AAAA2ABE000000803F0664EC1B3C045D
:10015000BC163E3BE5B93CC93C37C29E5A3D6604DD
:1001600098083EEA69AAAA3E000000803F006E613E
:100170006E00696E660000407A10F35A00A0724E5D
:1001800018090010A5D4E80000E87648170000E43C
:100190000B54020000CA9A3B000000E1F505000084
:1001A00080969800000040420F000000A0860100E9
:1001B0000000102700000000E803000000006400B9
:1001C000000000000A000000000001000000000024
:1001D0002C76D888DC674F0823DFC1DFAE59E1B148
:1001E000B796E5E3E453C63AE651997696E8E6C257
:1001F0008426EB898C9B62ED407C6FFCEFBC9C9F5E
:1002000040F2BAA56FA5F490055A2AF75C936B6C7F
:10021000F9676DC11BFCE0E40D47FEF520E6B50073
:10022000D0ED902E0300943577050080841E0800E1
:1002300000204E0A000000C80C333333330F986E91
:1002400012831141EF8D2114893BE65516CFFEE64E
:10025000DB18D1844B381BF77C1D901DA4BBE42414
:10026000203284725E228100C9F124ECA1E53D2791
:10027000426F6F74656400556E61626C6520746FC7
:10028000206C6F63617465207365676D656E7420A3
:10029000666F72206C6F6F6B616865616420706F50
:1002A000696E7400456E64206F662070617468200A
:1002B0007265616368656400556E61626C65207487
:1002C0006F206C6F63617465207365676D656E7414
:1002D00020666F72206F7274686F676F6E616C203A
:1002E00070726F6A656374696F6E00506174682024
:1002F0006F6620257520706F696E74732C20312E07
:100300002825692C25692920322E2825692C256964
:1003100029202E2E2E00466F6C6C6F776572207030
:100320006172616D65746572732073657400466FE8
:100330006C6C6F77657220726573657400466F6CC4
:100340006C6F7765722070617573656400466F6CC1
:100350006C6F7765722073746172746564004E6FA0
:10036000207061746820617661696C61626C6500FF
:1003700050617468206F6620257520706F696E74F7
:10038000732C20312E2825692C25692920322E280E
:1003900025692C256929202E2E2E00466F6C6C6F46
:1003A0007765723A206F7574206F66206D656D6F8A
:1003B0007279206F72207061746820686173207494
:1003C0006F6F2066657720706F696E7473001124FB
:1003D0001FBECFEFD1E2DEBFCDBF13E0A0E0B2E0A1
:1003E000E0EFF9E500E00BBF02C007900D92AC3CD6
:1003F000B107D9F72DE0ACECB3E001C01D92A03DF0
:10040000B207E1F70E9444130C94F62C0C94641587
:100410002F922FB6CF93DF93EF93FF93E091E503F5
:10042000F091E6033196F093E603E093E503E09163
:100430002C02E395E170E0932C02F0E0EE0FE35D17
:10044000FD4FC081D1812296D183C083C0FD07C0FA
:10045000F091EC03F03019F0EFECE0937A00FF91AB
:10046000EF91DF91CF912FBE2F9018952F922FB63D
:100470002F93EF93FF932091CE00E091E703E39554
:10048000EF77F091E803FE1761F0E093E703F0E007
:10049000E25FF34F2083FF91EF912F912FBE2F90BA
:1004A000189521E02093EB03F6CF2F922FB6EF9310
:1004B000FF93F091E903E091EA03FE1779F0E395E9
:1004C000EF7FE093EA03F0E0E257F34FE081E0933F
:1004D000CE00FF91EF912FBE2F901895E8E9E093A1
:1004E000C900F7CF2F922FB67F938F939F93CF930F
:1004F000DF93EF93FF93C0913102D0913202FE015E
:10050000E65FFF4F8DE0EC3AF80799F18181809327
:100510007C00828180937B00F0933202E093310271
:10052000E881E395E070E883FF27EE0FFF1FEC0FF3
:10053000FD1F7085909178009087791B818590913F
:1005400079009187890B982F990F990BEC81E71B04
:10055000EC83ED81E80BED83EE81E90BEE83FF91F7
:10056000EF91DF91CF919F918F917F912FBE2F902F
:100570001895EEE8FDE0CACF4F925F926F927F929E
:100580008F929F92AF92BF92CF92DF92EF92FF92A3
:100590000F931F93CF93DF93CDB7DEB760970FB65E
:1005A000F894DEBF0FBECDBF9E838D838B01FC010F
:1005B000C084D184E284F384C701B6010E9435224D
:1005C0004B015C01C701B6010E9460256B017C01F3
:1005D000ED81FE812081318142815381F80160816A
:1005E0007181828193810E94C32169837A838B8385
:1005F0009C83ED81FE812481358146815781F801FC
:1006000064817581868197810E94C3216D837E8379
:100610008F839887A5019401C501B4010E94CF245E
:100620002B013C01A7019601C701B6010E94CF240E
:100630009B01AC01C301B2010E94C4210E946E253E
:100640006D877E878F87988B29813A814B815C816A
:10065000CA01B9010E94CF242B013C012D813E81AA
:100660004F815885CA01B9010E94CF249B01AC017A
:10067000C301B2010E94C4210E946E2569877A8756
:100680008B879C8729813A814B815C81C501B401AC
:100690000E94CF242B013C012D813E814F81588542
:1006A000C701B6010E94CF249B01AC01C301B20176
:1006B0000E94C4212B013C012D853E854F85588920
:1006C00069857A858B859C850E94CF249B01AC012E
:1006D000C301B2010E943A220E94B2212B013C01C7
:1006E0002D813E814F815885C501B4010E94CF24E0
:1006F0004B015C0129813A814B815C81C701B601C4
:100700000E94CF249B01AC01C501B4010E94C3210A
:1007100020E030E0A9010E94302287FD83C022E959
:100720003AE046E85FE3C301B2019F770E943022BE
:1007300018160CF054C080E090E0AAEFB4E4809367
:10074000060290930702A0930802B0930902C12CFD
:10075000D12CE12C80E4F82EC301B2010E94B22515
:1007600020E030E04BE952E40E94CF24A70196013B
:100770000E94CF246B017C019B01AC0160E070E022
:100780008AEF94E40E94C3210E94AC224B015C01D9
:1007900020E030E04AEF54E4C701B6010E94C421D2
:1007A0000E94AC2288279927861B970BB40160967C
:1007B0000FB6F894DEBF0FBECDBFDF91CF911F9172
:1007C0000F91FF90EF90DF90CF90BF90AF909F90F0
:1007D0008F907F906F905F904F900C94EB1560918D
:1007E000060270910702809108029091090200E0D0
:1007F00010E02AEF34E400930602109307022093DE
:1008000008023093090220E030E04AE754E40E94F5
:100810003A222AE939E949E95FE30E94CF246B01D2
:100820007C019ACF77FA709477F8709478CF4F92D2
:100830005F926F927F928F929F92AF92BF92CF9270
:10084000DF92EF92FF920F931F93CF93DF93CDB779
:10085000DEB764970FB6F894DEBF0FBECDBF9E83A0
:100860008D838B01609106027091070280910802CE
:10087000909109020E94AC2269877A878B879C87B6
:10088000ED81FE8180849184A284B384C501B4018A
:100890000E9435226B017C01C501B4010E946025D4
:1008A0002B013C01ED81FE81208131814281538108
:1008B000F80160817181828193810E94C3216983E3
:1008C0007A838B839C83ED81FE81248135814681EF
:1008D0005781F80164817581868197810E94C321C7
:1008E0006D837E838F839887A7019601C701B60128
:1008F0000E94CF244B015C01A3019201C301B2010C
:100900000E94CF249B01AC01C501B4010E94C42107
:100910000E946E25698B7A8B8B8B9C8B29813A8107
:100920004B815C81CA01B9010E94CF244B015C015B
:100930002D813E814F815885CA01B9010E94CF2483
:100940009B01AC01C501B4010E94C4210E946E2527
:100950006D877E878F87988B29813A814B815C8157
:10096000C701B6010E94CF244B015C012D813E815D
:100970004F815885C301B2010E94CF249B01AC0175
:10098000C501B4010E94C4214B015C0129893A8947
:100990004B895C896D857E858F8598890E94CF24DF
:1009A0009B01AC01C501B4010E943A220E94B22110
:1009B0004B015C012D813E814F815885C701B601F5
:1009C0000E94CF246B017C0129813A814B815C819B
:1009D000C301B2010E94CF249B01AC01C701B60143
:1009E0000E94C32120E030E0A9010E94302287FD4F
:1009F00059C026E537E746E55DE3C501B4010E942D
:100A0000232418160CF453C026E537E746E55DEBC2
:100A1000C501B4010E94302287FD2FC0E985FA8507
:100A2000F195E195F109FA83E98369857A85CF012A
:100A30000E94EB1529853A853093CD032093CC0392
:100A400089819A819093CF038093CE0364960FB6E9
:100A5000F894DEBF0FBECDBFDF91CF911F910F91F4
:100A6000FF90EF90DF90CF90BF90AF909F908F90CE
:100A70007F906F905F904F90089529853A85285E0A
:100A800033403A832983B901C9010E94EB1589815A
:100A90009A819093CD038093CC039093CF0380935E
:100AA000CE03D4CFB7FAB094B7F8B094A2CF28EE63
:100AB00033E089859A85281B390B3A832983B9014C
:100AC000C9010E94EB15E981FA81F093CD03E0930F
:100AD000CC03F093CF03E093CE03B8CF4F925F9255
:100AE0006F927F928F929F92AF92BF92CF92DF923E
:100AF000EF92FF920F931F93CF93DF9300D01F923B
:100B0000CDB7DEB76C018B01FC0160817181828100
:100B100093810E94AC227B01FFEFEF1AFF0AF601DE
:100B200064817581868197810E94AC226B01FFEF01
:100B3000CF1ADF0AF80160817181828193810E945E
:100B4000AC224B015C01F80164817581868197813B
:100B50000E94AC222B013C0188E090E00E94D22947
:100B60008C01FC01F182E082D382C2829582848270
:100B70005782468282E089831B830A83CE010196D5
:100B80000E94071AC8010E946A2A81E00E94361A50
:100B90000F900F900F90DF91CF911F910F91FF90C9
:100BA000EF90DF90CF90BF90AF909F908F907F900D
:100BB0006F905F904F9008952F923F924F925F9267
:100BC0006F927F928F929F92AF92BF92CF92DF925D
:100BD000EF92FF920F931F93CF93DF93CDB7DEB7C2
:100BE00060970FB6F894DEBF0FBECDBF1C01C9825F
:100BF000DA82EB82FC820D831E832F83388749873C
:100C00005A876B877C8749845A846B847C84B501BE
:100C1000680D791D77FD61C075956795072E000CED
:100C2000880B990B0E94E42223E039E042E15FE364
:100C30000E94CF246B017C01C301B2010E943522C6
:100C40006D877E878F87988BC301B2010E946025D4
:100C50009B01AC01C701B6010E94CF242D813E81CA
:100C60004F8158850E94C4214B015C012D853E8532
:100C70004F855889C701B6010E94CF249B01AC0162
:100C800069817A818B819C810E94C421F1016083FA
:100C900071838283938384829582A682B782408601
:100CA000518662867386C10160960FB6F894DEBFE6
:100CB0000FBECDBFDF91CF911F910F91FF90EF90AD
:100CC000DF90CF90BF90AF909F908F907F906F906C
:100CD0005F904F903F902F9008956F5F7F4F9CCF14
:100CE0002F923F924F925F926F927F928F929F923C
:100CF000AF92BF92CF92DF92EF92FF920F931F932A
:100D0000CF93DF93CDB7DEB760970FB6F894DEBF11
:100D10000FBECDBF1C01C982DA82EB82FC820D833B
:100D20001E832F83388749875A876B877C87C984BE
:100D3000DA84EB84FC84B501BB0C880B990B0E9410
:100D4000E42225E732E042E15FE30E94CF242B0159
:100D50003C01B401990C880B990B0E94E42221E913
:100D60003FE042E15FE30E94CF246D877E878F875B
:100D7000988BA30192010E94C3214B015C012D8538
:100D80003E854F855889C301B2010E94C421A50147
:100D900094010E943A2220E030E04AE952E40E94A5
:100DA000CF246D877E878F87988B20E030E04BE1E2
:100DB00053E4C501B4010E943A22A70196010E94A2
:100DC000C4214B015C010E9460252B013C01C7013D
:100DD000B6010E9460259B01AC01C301B2010E94D3
:100DE000C3212D853E854F8558890E94CF242B0134
:100DF0003C01C701B6010E9435226B017C01C5018F
:100E0000B4010E9435229B01AC01C701B6010E94CA
:100E1000C3212D853E854F8558890E94CF246B01C3
:100E20007C012BED3FE049E450E4C501B4010E9490
:100E3000232418160CF44DC02BED3FE049E450EC90
:100E4000C501B4010E94302287FF0AC02BED3FE0AC
:100E500049EC50E4C501B4010E94C4214B015C017E
:100E60002D813E814F815885C701B6010E94C42162
:100E70006B017C01A301920169817A818B819C8144
:100E80000E94C421F1016083718382839383C482B1
:100E9000D582E682F78280869186A286B386C101DA
:100EA00060960FB6F894DEBF0FBECDBFDF91CF9135
:100EB0001F910F91FF90EF90DF90CF90BF90AF9078
:100EC0009F908F907F906F905F904F903F902F906A
:100ED00008952BED3FE049EC50E4C501B4010E94B8
:100EE000C3214B015C01BCCF10923408E7E0F1E074
:100EF00080818F738083E8E6F0E080818460808366
:100F000080EC80936D0008958091060187FD02C0FA
:100F100080E00895809134088F5F8093340881E0E9
:100F200008958091060186FF07C0809134088F5F85
:100F30008093340881E0089580E00895809134081A
:100F4000089514B88FEF85B9E8E6F0E080818160FC
:100F50008083EBE6F0E08081806F808383B18093B3
:100F60003308109238081092370810923608109201
:100F70003508089583B180933308089523B1909183
:100F80003308991F9927991F990F990F990F8091ED
:100F90003308E82FE07486FDE4E0822F881F88275D
:100FA000881F880F26FB222720F9920FE90F8E0F4A
:100FB00091E0843019F0883009F090E09093310886
:100FC000E82FF0E0E65CFD4F8081089593B18091B9
:100FD0003308E82FE07285FDE8E080913308282F80
:100FE000207184FD24E0892F807295FD82E0929526
:100FF0009170E90FE20FE80F81E0E43019F0E8307A
:1010000009F080E080933208F0E0E65CFD4F8081DB
:10101000089582E00E94D016BC0180E090E00E941A
:10102000E2229B01AC0164EE76EB8CE895E40E9431
:101030003A2222EA33E249ED5FE30E94C321089598
:1010400081E00E94D016BC0180E090E00E94E22284
:101050009B01AC016BED77EF8CE795E40E943A229F
:101060002CE13DEC4CE150E40E94C321089580E066
:101070000E94D016BC0180E090E00E94E2229B0119
:10108000AC016EE07CED85E795E40E943A222FE307
:1010900035ED44E150E40E94C3210895CF92DF92E0
:1010A000EF92FF92FC01C084D184E284F38421E6B4
:1010B0003CE649EB5FE3C701B6010E94232487FDAC
:1010C0000BC02EE333EB48ED5FE3C701B6010E948E
:1010D000302218160CF058C02DE23EE341E450E4F3
:1010E000C701B6010E94232487FD10C02BED3FE00D
:1010F00049E450E4C701B6010E943022181634F0CA
:1011000083E0FF90EF90DF90CF9008952BED3FE0CC
:1011100049E450ECC701B6010E94232487FD0AC0B0
:101120002DE23EE341E450ECC701B6010E943022BB
:10113000181634F726ED35E34AEF5DE3C701B60133
:101140000E943022181684F026ED35E34AEF5DEB5D
:10115000C701B6010E94232487FD06C082E0FF90EC
:10116000EF90DF90CF90089521E63CE649EB5FEBEE
:10117000C701B6010E94302287FD0CC084E0FF90B9
:10118000EF90DF90CF90089580E0FF90EF90DF9098
:10119000CF9008952EE333EB48ED5FEBC701B60126
:1011A0000E942324181654F781E0ABCF61110AC0C6
:1011B0008823C1F08130D1F08330D1F0823041F406
:1011C00081E00895633081F0613021F06230C9F030
:1011D00084E008958823A1F3813051F0833031F009
:1011E0008230B1F780E00895811104C083E0089552
:1011F00082E00895813021F38330A1F3823041F7FA
:1012000008958823A9F3813069F38330C9F28230CD
:10121000F9F6ECCF0F931F93CF938A010E94D60863
:10122000C82F1F928F938AE492E09F938F9382E05E
:101230008F930E9421180F900F900F900F900F9096
:10124000C1112BC0F801608171812281338154E189
:10125000529FF001539FF00D11244CE8469FC001AE
:10126000479F900D1124E80FF91FE75CF74F41E00D
:10127000428B121613066CF421503109529FF00173
:10128000539FF00D11248E0F9F1FFC01E75CF74F59
:10129000438BCF911F910F910895C33061F1C130FD
:1012A00009F454C0C230A9F7F801808191812281EC
:1012B000338144E1429FB001439F700D11245CE8EB
:1012C000589FF001599FF00D1124E60FF71FE75CBE
:1012D000F74F41E0418B86309105DCF60196589F2F
:1012E0009001599F300D1124FB01E20FF31FE75CC1
:1012F000F74F408BCECFF8018081918122813381DD
:1013000044E1429FB001439F700D11245CE8589F57
:10131000F001599FF00D1124E60FF71FE75CF74F1E
:1013200041E0408B181619060CF0B3CF0197589F77
:101330009001599F300D1124FB01E20FF31FE75C70
:10134000F74F418BCF911F910F910895F801608164
:1013500071812281338144E1429FF001439FF00D6E
:1013600011245CE8569FC001579F900D1124E80F8F
:10137000F91FE75CF74FC38B263031050CF089CF9E
:101380002F5F3F4F429FF001439FF00D11248E0FBE
:101390009F1FFC01E75CF74FC28B7BCF1F93CF935E
:1013A000DF93EB01142F0E944E08682F812F0E94BB
:1013B000D608882369F0833029F1813009F456C0BA
:1013C0008230D1F180E090E0DF91CF911F910895BC
:1013D0008A819B812881398144E1489FF001499F9E
:1013E000F00D11244CE8429FC001439F900D112441
:1013F000E80FF91FE75CF74F84859585DF91CF9162
:101400001F9108958A819B812881398144E1489FF9
:10141000F001499FF00D11244CE8429FC001439F09
:10142000900D1124E80FF91FE75CF74F8285938533
:10143000DF91CF911F9108958A819B812881398105
:1014400044E1489FF001499FF00D11244CE8429F70
:10145000C001439F900D1124E80FF91FE75CF74F7F
:1014600080859185DF91CF911F9108958A819B811D
:101470002881398144E1489FF001499FF00D1124F2
:101480004CE8429FC001439F900D1124E80FF91FC3
:10149000E75CF74F8685978597CF1F93CF93DF93B0
:1014A000EB01142F0E944E08682F812F0E94D6084E
:1014B000882329F1833009F43FC0813009F459C0F1
:1014C0008230C9F4288139818A819B8144E1489F17
:1014D000F001499FF00D11244CE8429FC001439F49
:1014E000900D1124E80FF91FE75CF74F8085918577
:1014F000019691878087DF91CF911F910895288170
:1015000039818A819B8144E1489FF001499FF00D18
:1015100011244CE8429FC001439F900D1124E80F15
:10152000F91FE75CF74F8485958501969587848739
:10153000DF91CF911F910895288139818A819B8104
:1015400044E1489FF001499FF00D11244CE8429F6F
:10155000C001439F900D1124E80FF91FE75CF74F7E
:1015600082859385019693878287DF91CF911F9122
:101570000895288139818A819B8144E1489FF00147
:10158000499FF00D11244CE8429FC001439F900DEC
:101590001124E80FF91FE75CF74F868597850196C0
:1015A00097878687A8CF1F93CF93DF93EB01142FE4
:1015B0000E944E08682F812F0E94D608882361F070
:1015C000833019F1813009F452C08230B9F181E0E1
:1015D000DF91CF911F9108958A819B812881398164
:1015E00044E1489FF001499FF00D11244CE8429FCF
:1015F000C001439F900D1124E80FF91FE75CF74FDE
:101600008289DF91CF911F9108958A819B812881E2
:10161000398144E1489FF001499FF00D11244CE8C5
:10162000429FC001439F900D1124E80FF91FE75C12
:10163000F74F8089DF91CF911F9108958A819B8117
:101640002881398144E1489FF001499FF00D112420
:101650004CE8429FC001439F900D1124E80FF91FF1
:10166000E75CF74F8189DF91CF911F9108958A81BF
:101670009B812881398144E1489FF001499FF00D09
:1016800011244CE8429FC001439F900D1124E80FA4
:10169000F91FE75CF74F83899BCFAF92BF92DF9230
:1016A000EF92FF920F931F93CF93DF93EC018B0187
:1016B00040E00E94CE097C018FE0E81687E2F80640
:1016C00044F440E0B801CE010E94D30A882309F413
:1016D0004AC02FE0E22E27E2F22E34E0D32E41E082
:1016E000B801CE010E94CE095C018E159F053CF425
:1016F00041E0B801CE010E94D30A882381F142E083
:10170000B801CE010E94CE095C018E159F053CF404
:1017100042E0B801CE010E94D30A8823E1F043E001
:10172000B801CE010E94CE098E159F054CF443E00E
:10173000B801CE010E94D30A811102C083E0D82EE5
:101740008D2DDF91CF911F910F91FF90EF90DF9042
:10175000BF90AF900895750192E0D92EE0CF75014A
:10176000DD24D394CCCFD12CBACF2F923F924F927D
:101770005F926F927F928F929F92AF92BF92CF9221
:10178000DF92EF92FF920F931F93CF93DF9300D0DE
:1017900000D01F92CDB7DEB77B01142F0E944E08F8
:1017A000082F1F928F9384E592E09F938F9342E0DE
:1017B000D42EDF920E9421181F921F9380E692E0A0
:1017C0009F938F93DF920E942118602F812F0E9498
:1017D000D608B82EF701808091800281138184E1C0
:1017E000809F6001819FD00C11242CE8289DC001AE
:1017F000299D900D11248C0D9D1D9C01275C374F58
:101800006901F90160817181828193810E94AC221A
:101810002B013C01F60164817581868197810E94CC
:10182000AC220FB6F894DEBF0FBECDBFB11089C099
:1018300001501109FB013A96FD83EC83120117FD5B
:101840008EC0073011050CF090C097FCB7C027E0A0
:10185000821691040CF0A3C084E1809F6001819FF7
:10186000D00C11242CE8289DC001299D900D112435
:101870008C0D9D1DFC01E75CF74F6F01608171814C
:10188000828193810E94AC225B01F60164817581A3
:10189000868197810E94AC223B0188E090E00E9403
:1018A000D2296C01FC01318220822C813D8133835D
:1018B0002283B582A4827782668282E08983DB827A
:1018C000CA82CE0101960E94071AC6010E946A2AA6
:1018D000F7018081918190930F0280930E028281A3
:1018E0009381909311028093100290920B02809248
:1018F0000A0210930D0200930C02B092D103A09241
:10190000D0037092D3036092D203918280821383BA
:1019100002830F900F900F900F900F90DF91CF9157
:101920001F910F91FF90EF90DF90CF90BF90AF90FD
:101930009F908F907F906F905F904F903F902F90EF
:101940000895F3E0BF16B9F0E1E0BE1671F132E0A0
:10195000B316D9F07D836C83120117FF72CF520149
:1019600038EE632E33E0732E98CF520128E1622EB9
:101970002CEF722E92CF21E0821A910812013AE0E8
:10198000231A31087D836C835ACFEFEF8E1A9E0A9B
:101990001201FAE02F0E311C7D836C8350CF3B0186
:1019A00088EEA82E83E0B82E78CF0F5F1F4F9B01E3
:1019B0002A5031093D832C83120141CF3B0198E12C
:1019C000A92E9CEFB92E69CFEF92FF921F93CF9370
:1019D000DF937C01EB01142F888199819C012150B8
:1019E00031092530310580F42A813B81A90141501C
:1019F00051094530510508F04AC080E0DF91CF9190
:101A00001F91FF90EF9008952A813B8186309105C8
:101A100031F544E1429FF001439FF00D1124EE5651
:101A2000F44F4081411133C08BE692E09F938F9336
:101A300082E08F930E9421180F900F900F90123028
:101A400009F440C0112309F45FC0133009F455C0F4
:101A5000113009F460C0888199812A813B81009707
:101A6000B1F444E1429FF001439FF00D1124E75C83
:101A7000F74F408941110BC0123009F43EC01123C9
:101A800009F449C01330F1F0113009F43DC02115BB
:101A90003105F9F02630310509F0AFCF2CE8289F49
:101AA000F001299FF00D1124EC53F74F8081811133
:101AB000A4CF123049F1112301F1133061F111303B
:101AC00009F09BCF40E0BE01C7010E94B50B81E049
:101AD00095CF2CE8289FF001299FF00D1124E75C99
:101AE000F74F8289811189CF1230A9F0112351F368
:101AF000133051F0113009F080CF42E0BE01C70130
:101B00000E94B50B81E07ACF43E0BE01C7010E947D
:101B1000B50B81E073CF41E0BE01C7010E94B50B58
:101B200081E06CCFFB018081882321F0108281E06D
:101B3000FA0180830895AF92BF92CF92DF92EF9225
:101B4000FF920F931F93CF93DF937C015B016A0198
:101B5000E9018B818F938A818F9389818F9388810B
:101B60008F938AE792E09F938F9302E00F930E94F6
:101B70002118C7010E944E08182F8DB79EB70796EF
:101B80000FB6F8949EBF0FBE8DBF143009F48DC000
:101B900088819981079708F068C08A819B8197FDA9
:101BA00064C00E9409082DE232EB41E451E40E9436
:101BB000232418160CF072C001E00E94200823E3D1
:101BC00033E343ED51E40E94232418160CF07FC048
:101BD0000F5F0E94370820E030E040E151E40E94AE
:101BE000232418160CF06DC00F5F412FBE01C701F2
:101BF0000E94E40C81115CC002300CF46EC085E0E0
:101C0000F6018083F5011082288139818A819B81C8
:101C100044E1489FF001499FF00D11244CE8429F98
:101C2000C001439F900D1124E80FF91FE75CF74FA7
:101C300083891F928F9382891F928F9381891F922C
:101C40008F9380891F928F9380E992E09F938F9367
:101C500082E08F930E9421188DB79EB70B960FB626
:101C6000F8949EBF0FBE8DBF0EC086E0F601808344
:101C700087E892E09F938F9382E08F930E942118D0
:101C80000F900F900F90DF91CF911F910F91FF90C8
:101C9000EF90DF90CF90BF90AF900895AE01612F8D
:101CA00080E00E940A0900E088CFF6010083EBCFB4
:101CB00081E00E94361A83E0F6018083F5011082EC
:101CC000A3CFAE01612F83E00E940A098ECFAE013F
:101CD000612F81E00E940A097CCF84E0F6018083B5
:101CE000F501108291CFAF92BF92CF92DF92FF9217
:101CF0000F931F93CF93DF93EC016B015A0189017E
:101D000040E0B9010E94D30A882351F041E0B801B4
:101D1000CE010E94D30A811124C0FF24F39401C094
:101D2000F12C4F2DB801CE010E94CE09029714F07C
:101D300092E0F92E4F2DB801CE010E94B50B81E043
:101D40000E94361A83E0F5018083F6011082DF914C
:101D5000CF911F910F91FF90DF90CF90BF90AF90E8
:101D6000089543E0B801CE010E94D30A8111E0CF6B
:101D700083E0F82ED6CFBF92CF92DF92EF92FF9200
:101D80000F931F93CF93DF938C016B017A01E901CD
:101D9000288139818A819B8144E1489FF001499FD4
:101DA000F00D11244CE8429FC001439F900D112477
:101DB000E80FF91FE75CF74F228533858485958509
:101DC000820F931F26853785820F931F20853185CB
:101DD000820F931F0097A1F17CF042E0BE01C80181
:101DE0000E94CE09892B41F442E0BE01C8010E9445
:101DF000D30A882309F45BC0BE01C8010E944D0BC1
:101E0000B82E482FBE01C8010E94CE090297ACF13E
:101E100088EA92E09F938F9382E08F930E9421182B
:101E200086E0F70180830F900F900F90DF91CF91A4
:101E30001F910F91FF90EF90DF90CF90BF9008958A
:101E400042E0BE01C8010E944D0A40E0BE01C80147
:101E50000E94D30A882349F141E0BE01C8010E94D3
:101E6000D30A882381F143E0BE01C8010E94D30A4E
:101E700081112CC093E0B92E05C042E0BE01C8011B
:101E80000E944D0A4B2DBE01C8010E944D0A4B2DE8
:101E9000BE01C8010E94B50B81E00E94361A83E0A2
:101EA000F7018083F6011082C1CFB12CEBCF42E065
:101EB000BE01C8010E944D0A42E0BE01C8010E9455
:101EC0004D0A42E0E5CFBB24B394DCCF82E0B82ECC
:101ED000D9CF2F923F924F925F926F927F928F92C3
:101EE0009F92AF92BF92CF92DF92EF92FF920F93A9
:101EF0001F93CF93DF938C017B016A0119018091BD
:101F00002008811105C081E0FA018083FB01108265
:101F1000F80180809180A280B380C091D003D091DD
:101F2000D103BE0168577109072E000C880B990B6D
:101F30000E94E4229B01AC01C501B4010E9423244C
:101F40001816D4F4F801448055806680778000919B
:101F5000D2031091D303B80168577109072E000C02
:101F6000880B990B0E94E4229B01AC01C301B201D2
:101F70000E9423241816D4F0C0E08091CE039091E3
:101F8000CF0397FD3CC0DF91CF911F910F91FF9040
:101F9000EF90DF90CF90BF90AF909F908F907F9009
:101FA0006F905F904F903F902F900895C858DF4FEB
:101FB000BE01DD0F880B990B0E94E4229B01AC014E
:101FC000C501B4010E94302287FFD6CFB8016858FE
:101FD0007F4F072E000C880B990B0E94E4229B0177
:101FE000AC01C301B2010E943022C82FCC1FCC2704
:101FF000CC1F8091CE039091CF0397FFC4CF8091E7
:10200000CC039091CD03181619060CF0BCCF0E949A
:10201000090820E030E040E650E40E94302287FFCB
:10202000B2CF8091CF038F938091CE038F93809115
:10203000CD038F938091CC038F9386ED92E09F9395
:102040008F9382E08F930E94211882E00E94361ABB
:102050000E94231681E0F6018083F701108210921E
:10206000CD031092CC031092CF031092CE03809137
:102070000E0290910F022DB73EB7295F3F4F0FB66A
:10208000F8943EBF0FBE2DBFF1012081318128178A
:10209000390761F0C11177CFF1019183808380917D
:1020A000100290911102938382836DCF42815381FC
:1020B00020911002309111024217530759F763CF54
:1020C0000F931F93CF93DF93EB018A010E944E0879
:1020D000843049F081E0F80180831882DF91CF914C
:1020E0001F910F91089568EE73E088EE93E0DF9101
:1020F000CF911F910F910C94EB154F925F926F92BD
:102100007F928F929F92AF92BF92CF92DF92EF9287
:10211000FF927B01BC01990F880B990B0E94E4226E
:102120002DEC3CE44DE753E40E94CF240E943C2573
:102130002B013C01B701FF0C880B990B0E94E42294
:102140002DEC3CE44DE753E40E94CF240E943C2553
:102150004B015C01C301B2010E94AC226B01C501BD
:10216000B4010E94AC227B01C701B601FF90EF9041
:10217000DF90CF90BF90AF909F908F907F906F90A7
:102180005F904F9008958F929F92AF92BF92CF929F
:10219000DF92EF92FF92CF93DF93EC01CB0163E0EC
:1021A00070E0641B750B03970E947D106B017C012E
:1021B000B701FF0C880B990B0E94E4224B015C01D4
:1021C000B601DD0C880B990B0E94E42268837983A9
:1021D0008A839B838C829D82AE82BF8219861886F9
:1021E0001B861A861D861C861F861E86188A198ADB
:1021F0001A8A1B8ACE01DF91CF91FF90EF90DF907A
:10220000CF90BF90AF909F908F9008958F929F92A4
:10221000AF92BF92CF92DF92EF92FF920F931F93F4
:10222000CF93DF93CDB7DEB764970FB6F894DEBFD8
:102230000FBECDBFC12CD12C84E1982E9CE8892EF5
:10224000E12CF12C9C9C50019D9CB00C11248E9C87
:1022500080018F9C100D11240A0D1B1D075C174F68
:10226000A601B701CE0101960E94C310FE0131966E
:10227000D801892D01900D928A95E1F78FEFE81A28
:10228000F80A87E0E816F10411F78FEFC81AD80AA8
:1022900087E0C816D104A1F664960FB6F894DEBFA5
:1022A0000FBECDBFDF91CF911F910F91FF90EF90A7
:1022B000DF90CF90BF90AF909F908F900895DC01FA
:1022C0004D915D916D917C911397E0E2F2E0408336
:1022D00051836283738314964D915D916D917C91CE
:1022E0001797448355836683778318968D919D91C4
:1022F0000D90BC91A02D80879187A287B387089508
:102300007F936F938AEE92E09F938F9383E08F93F6
:102310000E9421180F900F900F900F900F9008952A
:10232000DC01EC918E2F90E08930910508F060C0BF
:10233000FC01EE58FF4F0C94C9298BED9FE0A9ECEE
:10234000BFE38093280290932902A0932A02B093BE
:102350002B0280E090E0A0E2B1E480932002909311
:102360002102A0932202B09323028093240290932F
:102370002502A0932602B09327026091BD0A7091B6
:10238000BE0A8091BF0A9091C00A0E94AC227F933E
:102390006F936091B90A7091BA0A8091BB0A9091CB
:1023A000BC0A0E94AC227F936F9385E593E09F93D4
:1023B0008F9382E08F930E9421188DB79EB7079666
:1023C0000FB6F8949EBF0FBE8DBF83E00E94361AF1
:1023D00083E090E090931C0280931B0290931E0276
:1023E00080931D021092E3030E9423161092E203D1
:1023F00008950E94231682E080930D0C089560E0FA
:1024000070E084E29AEF0E94EB1581E080930D0C5E
:10241000089568EB7BE088E494EF0E94EB1510923E
:102420000D0C089590911F0281E0892780931F026F
:10243000882369F18CEF92E09F938F9382E08F93D2
:102440000E94211880E090E0A8E4B2E48093360274
:1024500090933702A0933802B09339020F900F90F7
:102460000F90089562E172E080E292E00C946E05B4
:1024700081E08093E20386E393E09F938F9382E071
:102480008F930E9421180F900F900F90089588E16C
:1024900093E09F938F9382E08F930E94211880E0B6
:1024A00090E0A0EAB1E48093360290933702A093C3
:1024B0003802B09339020F900F900F9008951F9239
:1024C0000F920FB60F9211240BB60F922F933F93DA
:1024D0004F935F936F937F938F939F93AF93BF932C
:1024E000CF93EF93FF930E948407C82F0E94910718
:1024F000C11116C0811122C0FF91EF91CF91BF9100
:10250000AF919F918F917F916F915F914F913F918B
:102510002F910F900BBE0F900FBE0F901F9018952C
:1025200081E693E09F938F9382E08F930E9421181E
:102530000F900F900F900E942316DECF8BE793E051
:10254000F1CF1F920F920FB60F9211240BB60F927C
:102550002F933F934F935F936F937F938F939F93AB
:10256000AF93BF93CF93EF93FF930E94E607C82FDB
:102570000E94BE07C23009F44FC0C13009F468C0E0
:10258000823089F18130B1F00E94BA07FF91EF915A
:10259000CF91BF91AF919F918F917F916F915F91FB
:1025A0004F913F912F910F900BBE0F900FBE0F9048
:1025B0001F90189580913108882331F38091350858
:1025C00090913608019790933608809335081092C1
:1025D00031088091DE039091DF0301979093DF0330
:1025E0008093DE03D1CF80913108882369F28091F6
:1025F00035089091360801969093360880933508F7
:10260000109231088091DE039091DF030196909340
:10261000DF038093DE03B8CF90913208992309F449
:10262000AFCF20913708309138082F5F3F4F30935C
:10263000380820933708109232082091E003309137
:10264000E1032F5F3F4F3093E1032093E00398CFE6
:1026500090913208992309F493CF20913708309153
:1026600038082150310930933808209337081092E8
:1026700032082091E0033091E10321503109309379
:10268000E1032093E0037CCFCF93DF93CDB7DEB798
:10269000A2970FB6F894DEBF0FBECDBF8FEE80932A
:1026A00064008FE38093650081B1806C81B90E94E2
:1026B00066160E94A71712E010930D0C0E94A71730
:1026C00080E891E19093AD0D8093AC0D80E991E1AC
:1026D0009093B90D8093B80D0E949F150E947C15B0
:1026E00080E00E9479160E9474070E94A1070E9450
:1026F000FC1980E090E0A8E4B2E480933602909365
:102700003702A0933802B09339020E9406118FE578
:1027100091E19093B70D8093B60D789480E792E0A5
:102720009F938F931F930E945B180F900F900F90B1
:1027300054E1252E5EEA352E59E2452E52E4552EFF
:1027400064E9662E63E0762EE0912C02F0E0EE0F55
:10275000FF1FE35DFD4F808191812091DC0330916B
:10276000DD03AC01421B530B9A01243F314040F082
:102770009093DD038093DC0382B190E4892782B9D2
:10278000E0912C02F0E0EE0FFF1FE35DFD4F808132
:1027900091812091DA033091DB03AC01421B530B92
:1027A0009A012C323140D8F19093DB038093DA0305
:1027B00083E089830E949E078A83809137089091E5
:1027C00038089C838B8380913508909136089E83CE
:1027D0008D830E9409080E94AC2278876F830E9433
:1027E00020080E94AC227A8769870E9437080E94DD
:1027F000AC227C876B871E861D86188A1F8644E163
:1028000050E05A8B498B2B8A3C8A4D8A5E8A46E17E
:1028100050E0BE016F5F7F4F81E00E94AF17E091F3
:102820002C02F0E0EE0FFF1FE35DFD4F80819181F0
:102830002091D8033091D903AC01421B530B443192
:10284000510508F0B0C0E0912C02F0E0EE0FFF1F40
:10285000E35DFD4F808191812091D6033091D703B4
:10286000AC01421B530B4931510540F09093D70303
:102870008093D603809120088111E0C0E0912C0262
:10288000F0E0EE0FFF1FE35DFD4F8081918120910D
:10289000D4033091D503AC01421B530B9A01283A63
:1028A000314668F09093D5038093D403198241E0B8
:1028B00050E0BE016F5F7F4F85E00E94AF170E941E
:1028C00095188091E303482F50E04730510588F474
:1028D000FA01E558FF4F0C94C9292BE132E043EE91
:1028E00053E062EE73E080E292E00E94BB0E8091C2
:1028F000E30390911A02981709F426CF1F928F9341
:102900007F926F9282E08F930E9421188091E3035F
:1029100080931A020F900F900F900F900F9014CF8A
:102920002BE132E043EE53E062EE73E080E292E0AE
:102930000E94730E8091E303DCCF2BE132E043EE83
:1029400053E062EE73E080E292E00E94690F8091B2
:10295000E303CFCF43EE53E062EE73E080E292E018
:102960000E9460108091E303C4CF1092E3031092A1
:10297000E20380E0BECF2BE132E043EE53E062EEB3
:1029800073E080E292E00E949B0D8091E303B1CF5F
:1029900043EE53E062EE73E080E292E00E94920D1B
:1029A0008091E303A6CF9093D9038093D803F89442
:1029B0008091350890913608A0903708B09038087B
:1029C0001092360810923508109238081092370885
:1029D00078949195819591094C018A159B0509F48C
:1029E00045C0C0902002D0902102E0902202F090D9
:1029F0002302009124021091250220912602309199
:102A00002702409128025091290260912A02709178
:102A10002B02CE0147960E9470068CE0FE0177964D
:102A2000A0E2B2E001900D928A95E1F74CE050E00F
:102A300060E272E082E00E94AF1705CF80E292E090
:102A40000E944F1A8823A9F180911F0269E278E061
:102A500081112AC080E292E00E94BC0241E150E074
:102A600060E278E083E00E94AF1708CF5C01C0907D
:102A70002002D0902102E0902202F09023020091E7
:102A800024021091250220912602309127024091C4
:102A900028025091290260912A0270912B02CE01E6
:102AA00047960E94DC05B9CF80E292E00E941704AD
:102AB000D5CF1092CD031092CC031092CF03109279
:102AC000CE030E942316CACF1F920F920FB60F9209
:102AD0001124179A169890E42FEF30E782E02150E6
:102AE00030408040E1F700C0000082B1805882B9D8
:102AF00082B1892782B9F0CF8091E40381111EC091
:102B000081E08093E403809165008F7D8093650070
:102B100010922101109225011092240188EE93E079
:102B20009093290180932801109222011092200194
:102B300082E0809373008AE0809321010895CF930F
:102B4000DF93E5E6F0E08081877E8083A1E9B0E055
:102B50001C92E1EAF0E0108210929500109294002D
:102B60001092A5001092A40082EF809390008093B1
:102B7000A000109292001092A2008FEF9FE190931C
:102B80009700809396009093A7008093A60090935F
:102B900099008093980090939B0080939A00909363
:102BA000A9008093A8009093AB008093AA008DB1F8
:102BB00088618DB9C1E0D1E08881886188839FB741
:102BC000F89481E883BD81E18C93808313BC9FBF1F
:102BD000DF91CF91089597FD18C09F710FB6F894BB
:102BE000109299001092980090939B0080939A0005
:102BF00077FD1BC07F711092A9001092A8007093FE
:102C0000AB006093AA000FBE08959195819591093C
:102C10009F710FB6F89410929B0010929A009093B7
:102C200099008093980077FFE5CF719561957109C0
:102C30007F711092AB001092AA007093A90060936C
:102C4000A8000FBE08952FB7F8948FEF9FE19093DF
:102C500099008093980090939B0080939A009093A2
:102C6000A9008093A8009093AB008093AA002FBF87
:102C700008952091E9032F5F9091EA032917E1F36A
:102C8000E22FF0E0E257F34F80832093E90388EBD3
:102C90008093C90008959091E7038091E803981705
:102CA000D1F39091E8039F5F9F77E92FF0E0E25F17
:102CB000F34F80819093E80308952091E70390916A
:102CC000E80381E02913089580E00895E5E6F0E047
:102CD00080818E7F80831092CD001092CC0080E4A2
:102CE0008093C80088E98093C90086E08093CA0079
:102CF0000895CF93DF93882339F09FB7F89485B771
:102D0000806885BF85BF9FBF809164008E7F809360
:102D1000640010927A0080B7806880BF8EE1EEE890
:102D2000FDE0DF011D928A95E9F781E080939B0D1C
:102D300082E08093A50DACEABDE080E030E040E0A9
:102D400061E070E058E0982F9770292F206421836C
:102D5000EB0102C0CC0FDD1F9A95E2F783FF08C09C
:102D60003C2B52833A96AE17BF0739F08381EBCFE5
:102D70004C2B3A96AE17BF07C9F740937E003093AD
:102D80007D0080918F0D80937C008091900D8093C9
:102D90007B0081E08093EC03DF91CF910C947C1554
:102DA00090E0FC01EE0FFF1F880F991F880F991FFD
:102DB000880F991FE80FF91FE257F24F2FB7F894C9
:102DC00084819581A681B7812FBF0895EF92FF92EC
:102DD0000F931F93CF93DF930091EE03C091F00305
:102DE000D091F103CE018E509C4F7C011091EF03E6
:102DF00009C09FEFE91AF90A082710E00E945D1642
:102E0000882301F10E944B16111104C0813151F148
:102E10008B3251F1F70180832196C115F4E0DF0771
:102E200041F78091ED0381608093ED0310E082EF24
:102E3000E82E83E0F82EC0E0D0E000E00E945D16AE
:102E40008111E0CF0093EE03D093F103C093F00320
:102E500011701093EF03DF91CF911F910F91FF90AD
:102E6000EF90089511E0CACFC430D105F0F09091F1
:102E7000F2038091F3038927982F92959F708F70AA
:102E80008927E091F4039E2F92959F708917D1F0C6
:102E90008091ED0384608093ED0322EFE22E23E026
:102EA000F22EC0E0D0E000E0A9CF8091ED03826077
:102EB0008093ED0392EFE92E93E0F92EC0E0D0E08D
:102EC00000E09CCF6091F2037091F30324976C179C
:102ED0007D0769F08091ED0388608093ED0332EF08
:102EE000E32E33E0F32EC0E0D0E000E087CF011105
:102EF00015C0EF70F0E0EE0FFF1FE455F24F0190A8
:102F0000F081E02D3097B9F085EF93E0099562EFFD
:102F1000E62E63E0F62EC0E0D0E070CF8091ED03A6
:102F200080618093ED0342EFE42E43E0F42EC0E095
:102F3000D0E000E063CF8091ED0380628093ED03E9
:102F400052EFE52E53E0F52EC0E0D0E057CF80E2FF
:102F5000ECEAFDE0DF011D928A95E9F70895CF9232
:102F6000DF92EF92FF920F931F93CF93DF93C82FBF
:102F70006B017A01413109F460C04B3209F45DC044
:102F80008E2D0E9439168F2D813109F452C08B325B
:102F900009F44FC08F2D0E9439161F2D1E2520E1E8
:102FA000129FC0011124D12FD07FD827CF70DC2BE6
:102FB000D131D9F1DB32C9F18D2F0E943916D127D9
:102FC000E114F104E1F08601EC0CFD1C07C08C2F2C
:102FD0000E943916DC270E151F0589F0F801C191F2
:102FE0008F01C13111F0CB3291F781E10E94391686
:102FF0008C2F0E943916DC270E151F0579F7D13169
:1030000081F0DB3271F08D2F0E9439168BE2DF9157
:10301000CF911F910F91FF90EF90DF90CF900C9484
:10302000391681E10E943916EECF81E10E943916EE
:10303000C3CF81E10E943916ADCF81E10E943916DC
:103040009FCFCF93DF93CDB7DEB7C250D1400FB63D
:10305000F894DEBF0FBECDBFC95FDE4F8881C75079
:10306000D14089839E01265F3E4FC85FDE4F488175
:103070005981C850D14061E071E0CE0102960E94B2
:10308000262C813021E092079CF4AC014F5F5F4F0A
:10309000BE016F5F7F4F80E00E94AF17CE5FDE4FB3
:1030A0000FB6F894DEBF0FBECDBFDF91CF9108956C
:1030B00041E051E0EDCFCF93DF93CDB7DEB7C25003
:1030C000D1400FB6F894DEBF0FBECDBFC95FDE4F53
:1030D0008881C750D14089839E01265F3E4FC85FDB
:1030E000DE4F48815981C850D14061E071E0CE0186
:1030F00002960E945F2C813021E092079CF4AC0183
:103100004F5F5F4FBE016F5F7F4F80E00E94AF1740
:10311000CE5FDE4F0FB6F894DEBF0FBECDBFDF919E
:10312000CF91089541E051E0EDCF0E945D168111ED
:1031300001C008950C94E616FC0140815181628122
:103140007381409336025093370260933802709334
:10315000390284818093350286E193E09F938F93B7
:1031600082E08F930E945B180F900F900F9008954C
:103170002F923F924F925F926F927F928F929F9287
:10318000AF92BF92CF92DF92EF92FF920F931F9375
:10319000CF93DF93823008F4A0C05B01D82F8FEF6C
:1031A0009FEF909334028093330210921B08109289
:1031B0001A081092200880911C0890911D08009711
:1031C00011F00E946A2A0D2F10E078018FEFE81AA3
:1031D000F80AEE0CFF1CEE0CFF1CC7010E94D2295E
:1031E0006C0190931D0880931C08009709F475C02A
:1031F000A701B5010E94D62BD0931B080250104C9A
:10320000000F111F000F111FE601C00FD11F0C810D
:103210001D812E803F8088819981B801681B790BC0
:10322000072E000C880B990B0E94E4222B013C0115
:103230008A819B81B101681B790B072E000C880BDA
:10324000990B0E94E4226B017C019B01AC01C3013C
:10325000B2010E9436244B015C0120E030E040E2E4
:1032600051E460913602709137028091380290915A
:1032700039020E94CF24A50194010E943A224B01F9
:103280005C019B01AC01C301B2010E94CF240E94EA
:10329000AC22600F711F79876887A5019401C7016F
:1032A000B6010E94CF240E94AC22620D731D7B8761
:1032B0006A8781E0DF91CF911F910F91FF90EF908E
:1032C000DF90CF90BF90AF909F908F907F906F9046
:1032D0005F904F903F902F90089580E0EBCFCF9379
:1032E000DF93EC0188818823A1F0813009F462C06A
:1032F000823009F452C0833009F471C0E0911E0895
:10330000F0911F083097E9F069818881DF91CF91B2
:103310000994BE016E5F7F4F89810E94B8188111A8
:1033200013C08BE993E09F938F931F920E945B18C9
:103330000F900F900F90E0911E08F0911F083097AA
:1033400019F7DF91CF910895E0911C08F0911D08C5
:1033500087818F9386818F9385818F9384818F93CB
:1033600083818F9382818F9381818F9380818F93CB
:1033700080911B081F928F9380E793E09F938F9318
:1033800082E08F930E945B188DB79EB70D960FB6A3
:10339000F8949EBF0FBE8DBFB1CF109220082DE3D1
:1033A00033E03F932F938F930E945B180F900F9001
:1033B0000F90A4CF90911B08911103C08EE593E06C
:1033C000B2CF809320088DE493E09F938F9382E0A7
:1033D0008F930E945B180F900F900F908FCF8FEFFD
:1033E0009FEF909334028093330210921A08109248
:1033F00020088EE293E0E9CFECEAFDE08FE699E168
:10340000978386838CE998E1918780870895CF938D
:10341000DF93EC01E981FA8187818F9386818F9315
:1034200085818F9384818F9383818F9382818F9302
:1034300081818F9380818F9388811F928F938BEEF0
:1034400092E09F938F9382E08F930E945B188DB7D9
:103450009EB70D960FB6F8949EBF0FBE8DBF6981C3
:103460007A818881DF91CF910C94B818823069F00D
:10347000833019F0813061F008958FEF9FEF9093C2
:1034800034028093330210921A0810922008089593
:1034900090911B08992381F38093200808952F921F
:1034A0003F924F925F926F927F928F929F92AF92D4
:1034B000BF92CF92DF92EF92FF920F931F93CF9321
:1034C000DF93CDB7DEB7ED970FB6F894DEBF0FBE32
:1034D000CDBF209120082FA7222309F438C2FC0178
:1034E00080819181A281B38189A39AA3ABA3BCA35C
:1034F00024813581468157812DA33EA34FA358A730
:1035000080911A08882309F43CC240911C0850910C
:103510001D085E8B4D8BA0902108B09022088090F2
:103520002308909024088091160890911708A09184
:103530001808B09119088D839E83AF83B8872091B6
:1035400012083091130840911408509115082983EE
:103550003A834B835C8340900E0850900F08609034
:103560001008709011088091020890910308A091B2
:103570000408B0910508898B9A8BAB8BBC8B20918A
:10358000FE073091FF0740910008509101082D87F8
:103590003E874F87588B8091FA079091FB07A09147
:1035A000FC07B091FD07898F9A8FAB8FBC8FC090BD
:1035B0000608D0900708A0910808B0910908BBAF91
:1035C000AAAFB501BB0C880B990B0E94E4229B01AA
:1035D000AC0169A17AA18BA19CA10E94C32169873A
:1035E0007A878B879C87B401990C880B990B0E9472
:1035F000E4229B01AC016DA17EA18FA198A50E9440
:10360000C3214B015C012D813E814F8158850E9471
:10361000CF247B018C0129853A854B855C856981A6
:103620007A818B819C810E941F23A30192010E94B9
:103630003A226BA77CA78DA79EA72B013C0177FAA6
:10364000709477F87094E984FA840B851C85A30143
:10365000920169817A818B819C810E941F230E9443
:10366000AE256D8F7E8F8F8F98A385017401A30186
:1036700092016D817E818F8198850E941F230E9417
:10368000AE259B01AC016D8D7E8D8F8D98A10E9422
:10369000C42168AB79AB8AAB9BAB29813A814B8162
:1036A0005C8169857A858B859C850E94C3212B016D
:1036B0003C012D813E814F815885C501B4010E9496
:1036C000C3214B015C0129893A894B895C890E949D
:1036D000CF247B018C01A30192016D857E858F85AE
:1036E00098890E941F23298D3A8D4B8D5C8D0E94F5
:1036F0003A226EAB7FAB88AF99AFA0913302B09105
:103700003402BDABACAB20E030E0A9010E94232421
:1037100087FD61C320E030E040E85FE36EA97FA948
:1037200088AD99AD0E94302218160CF0C1C42CA8A7
:103730003DA8FFEF2F1A3F0A2CA93DA93AA729A7B8
:10374000C1010196880F991F880F991FED89FE8985
:10375000E80FF91FFE83ED83F0913502FD8F809114
:103760001B08282F30E03A8F298F19824D815E8106
:103770005DAF4CAF0AAD1BAD04C0CD84DE840985BE
:103780001A85F981FF5FF9832D8DF21708F003C2C6
:103790003FEF231A330A498D5A8D241635060CF053
:1037A000FAC18CAD9DAD04969DAF8CAFDC010D9040
:1037B000BC91A02DBE87AD87FC010280F381E02D76
:1037C000FA87E987BD016C197D09072E000C880B6B
:1037D000990B0E94E4224B015C0169857A85601B8C
:1037E000710B072E000C880B990B0E94E4226D834D
:1037F0007E838F839887B601DD0C880B990B0E941E
:10380000E4229B01AC0169A17AA18BA19CA10E9439
:10381000C321698B7A8B8B8B9C8BB801110F880B22
:10382000990B0E94E4229B01AC016DA17EA18FA1A6
:1038300098A50E94C3216D8B7E8B8F8B988F9B01E7
:10384000AC016D817E818F8198850E94CF247B01A0
:103850008C0129893A894B895C89C501B4010E9490
:103860001F236B017C01C501B4010E94AE252B0111
:103870003C016D817E818F8198850E94AE259B01E0
:10388000AC01C301B2010E94C4219B01AC01C7017C
:10389000B6010E943A222B013C0120E030E0A90150
:1038A0000E94232487FD69CF20E030E040E85FE3F9
:1038B000C301B2010E94302218160CF45ECF77FAD1
:1038C000709477F87094E988FA880B891C89A301B1
:1038D0009201C501B4010E941F230E94AE254B0135
:1038E0005C01ED88FE880F89188DA30192016D811E
:1038F0007E818F8198850E941F230E94AE259B01A7
:10390000AC01C501B4010E94C4217B018C019B0163
:10391000AC0168A979A98AA99BA90E942324181639
:103920000CF02BCF3AA629A6E8AAF9AA0AAB1BAB42
:1039300024CF1092200884EA92E09F938F93F2E0C4
:10394000FF930E945B180F900F900F901FA68FA5FA
:10395000ED960FB6F894DEBF0FBECDBFDF91CF91CD
:103960001F910F91FF90EF90DF90CF90BF90AF909D
:103970009F908F907F906F905F904F903F902F908F
:10398000089581E080931A08E0911C08F0911D08C9
:10399000FE8BED8B84819581A681B7817C0180931C
:1039A000060890930708A0930808B093090880813F
:1039B0009181A281B3818093250890932608A093DA
:1039C0002708B093280889879A8729853A85B901FD
:1039D000330F880B990B0E94E42229A13AA14BA135
:1039E0005CA10E94C32169837A838B839C8360934B
:1039F000120870931308809314089093150800918F
:103A0000270810912808B801012E000C880B990B8B
:103A10000E94E4222DA13EA14FA158A50E94C321DE
:103A20006D837E838F839887609316087093170841
:103A3000809318089093190869A17AA18BA19CA181
:103A40000E94AC225B0170932208609321086DA153
:103A50007EA18FA198A50E94AC224B0170932408EF
:103A6000609323081701B70149855A85641B750BBC
:103A7000072E000C880B990B0E94E4226D877E872D
:103A80008F87988B6093FE077093FF0780930008E1
:103A90009093010880910808909109089BAF8AAF24
:103AA000BC01601B710B072E000C880B990B0E9448
:103AB000E422698B7A8B8B8B9C8B609302087093CA
:103AC000030880930408909305086D857E858F8593
:103AD00098890E94AE256B017C0169897A898B895E
:103AE0009C890E94AE259B01AC01C701B6010E94D2
:103AF000C421698F7A8F8B8F9C8F6093FA077093A4
:103B0000FB078093FC079093FD070E946E2560934E
:103B1000F6077093F7078093F8079093F907698188
:103B20007A818B819C810E94AE256B017C016D8125
:103B30007E818F8198850E94AE25A70196010E9403
:103B4000C4212B013C0160930E0870930F088093F1
:103B50001008909311080E946E259B01AC016093A0
:103B60000A0870930B0880930C0890930D086091DD
:103B700036027091370280913802909139020E948A
:103B80003A226093F2077093F3078093F4079093BF
:103B9000F507610116CD89A59AA5A98DBA8D8A1759
:103BA0009B0709F423C3E9A5FAA52CA93DA92E1763
:103BB0003F070CF41AC1C090F207D090F307E090D1
:103BC000F407F090F50720E030E040E85FE36BA5F4
:103BD0007CA58DA59EA50E942324181644F480E0A0
:103BE00090E0A0E8BFE38BA79CA7ADA7BEA7A70165
:103BF00096016BA57CA58DA59EA50E94C4214B01B5
:103C00005C0120E030E040E85FE30E9430221816BB
:103C10000CF0FFC220E030E040E85FE3C501B401F2
:103C20000E94C32120910A0830910B0840910C0892
:103C300050910D080E94CF246B017C018090F60703
:103C40009090F707A090F807B090F907A5019401AC
:103C50000E943022A501940118160CF07EC2C70103
:103C6000B6010E94C3216B017C01009106081091EE
:103C70000708A0910808B0910908BA83A983309079
:103C8000330288248394830C912CBFEF8B1A9B0AF8
:103C9000880C991C880C991C80911C0890911D0817
:103CA000880E991E3394339420901B08321480F0B0
:103CB00085C0C701B6010E94C3216B017C0133940A
:103CC0008D859E859A8389838501321408F076C09C
:103CD000E4E08E0E911CD401AD90BC901197129629
:103CE000ED91FC911397FE87ED87B501601B710B79
:103CF000072E000C880B990B0E94E4226D837E83B3
:103D00008F8398876D857E8529813A81621B730B2D
:103D1000072E000C880B990B0E94E42269877A8792
:103D20008B879C879B01AC016D817E818F819885FB
:103D30000E9436242B013C01A70196010E942324F6
:103D4000A301920187FDB5CFC701B6010E943A22B7
:103D50004B015C01B801110F880B990B0E94E42202
:103D60007B018C01A50194016D817E818F819885F5
:103D70000E941F232B013C0149815A81BA01550F32
:103D8000880B990B0E94E4227B018C01A501940110
:103D900069857A858B859C850E941F23409229081E
:103DA00050922A0860922B0870922C0860932D087C
:103DB00070932E0880932F08909330082310C7CD5E
:103DC00087E792E09F938F931F920E945B180F905A
:103DD0000F900F90BCCD2CA83DA8BFEF2B1A3B0A2B
:103DE000ECA9FDA9FAA7E9A7ABCC3AA53F9349A551
:103DF0004F935DA95F938CA98F938BEA93E09F9378
:103E00008F9392E09F930E94211880911B0890E06D
:103E100001970FB6F894DEBF0FBECDBFE9A5FAA596
:103E2000E817F90709F485CDE0911C08F0911D0809
:103E300089A59AA5880F991F880F991FE80FF91F68
:103E40008091330290913402019629A53AA5AF01E1
:103E50004C5F5F4F5E834D832817390709F426C2F4
:103E600080819181A281B38180932108909322085F
:103E7000A0932308B093240884819581A681B781FB
:103E80008093250890932608A0932708B0932808CC
:103E900089879A8780912108909122089A83898343
:103EA00069857A85681B790B072E000C880B990BA6
:103EB0000E94E4222B013C016093120870931308C6
:103EC00080931408909315082090270830902808B4
:103ED0000091230810912408B101601B710B072E7B
:103EE000000C880B990B0E94E4226B017C0160930B
:103EF0001608709317088093180890931908C30147
:103F0000B2010E94AE254B015C01C701B6010E94BF
:103F1000AE259B01AC01C501B4010E94C4214B0137
:103F20005C0160930E0870930F08809310089093C3
:103F30001108B801110F880B990B0E94E4229B0114
:103F4000AC016DA17EA18FA198A50E94C321A701FC
:103F500096010E94CF246B017C01A981BA81BD0129
:103F6000BB0F880B990B0E94E4229B01AC0169A155
:103F70007AA18BA19CA10E94C3219B01AC01870166
:103F80007601C301B2010E941F23A50194010E9482
:103F90003A226BA77CA78DA79EA7C501B4010E94FA
:103FA0006E25362F272F462F572FBC0140930A0826
:103FB00050930B0860930C0870930D08632F722FB9
:103FC0009B01AC01609136027091370280913802FA
:103FD000909139020E943A226B017C016093F207B2
:103FE0007093F3078093F4079093F507ED81FE81BA
:103FF00084819581A681B7818093060890930708F4
:10400000A0930808B0930908BC0129853A85621B72
:10401000730B072E000C880B990B0E94E4222B01D6
:104020003C016093FE077093FF0780930008909314
:104030000108609108087091090862197309072E38
:10404000000C880B990B0E94E4224B015C016093E9
:104050000208709303088093040890930508C30135
:10406000B2010E94AE252B013C01C501B4010E94A2
:10407000AE259B01AC01C301B2010E94C421609333
:10408000FA077093FB078093FC079093FD070E944B
:104090006E256093F6077093F7078093F807909367
:1040A000F90749A55AA550933402409333028BCDAA
:1040B000830172014EA85FA868AC79AC77FA70945E
:1040C00077F87094A30192016D857E858F8598891C
:1040D0000E941F230E94AE2569837A838B839C8371
:1040E00085017401A301920169897A898B899C8970
:1040F0000E941F230E94AE259B01AC0169817A8139
:104100008B819C810E94C42169837D83182F092F94
:104110009B01482F592F68A979A98AA99BA90E94B8
:10412000232418166CF020E030E040E85FE36BA534
:104130007CA58DA59EA50E94232418160CF0ACC06A
:104140008CA99DA901969AA789A71C01998198AB72
:10415000AD81A9AB1AAB0BABF3CAC701B6010E9484
:104160003A224B015C016091250870912608072EC8
:10417000000C880B990B0E94E4227B018C0160915A
:10418000FE077091FF078091000890910108A5013A
:1041900094010E941F232B013C016091270870911C
:1041A0002808072E000C880B990B0E94E4227B0143
:1041B0008C0160910208709103088091040890912D
:1041C0000508A50194010E941F23409229085092DE
:1041D0002A0860922B0870922C0860932D08709327
:1041E0002E0880932F0890933008B1CB88EB92E093
:1041F0009F938F931F920E945B18C090F207D090FC
:10420000F307E090F407F090F5070F900F900F90F0
:10421000DACC6091210870912208072E000C880BDF
:10422000990B0E94E4227B018C016091120870912D
:1042300013088091140890911508A50194010E941B
:104240001F232B013C016091230870912408072E45
:10425000000C880B990B0E94E4227B018C01609179
:104260001608709117088091180890911908A501F7
:1042700094010E941F234092290850922A086092BC
:104280002B0870922C0860932D0870932E08809351
:104290002F08909330085BCB2CA83DA83FEF231A42
:1042A000330A4CA95DA95AA749A74ACA8091FA07BF
:1042B0009091FB07A091FC07B091FD0780930E0839
:1042C00090930F08A0931008B093110888E0EEEFC8
:1042D000F7E0A2E1B8E001900D928A95E1F78091B4
:1042E000250890912608A0912708B091280880936E
:1042F000210890932208A0932308B093240880916A
:10430000060890910708A0910808B0910908582F55
:10431000492F8093250890932608A0932708B093EF
:1043200028086091F6077091F7078091F80790913F
:10433000F9078B019C0100930A0810930B08209346
:104340000C0830930D0859874A8720902708309031
:1043500028082EA93FA948AD59AD2BA73CA74DA7CA
:104360005EA72ECE9F939F770E9428230F90002058
:1043700042F49058A2EA2AED3FE049E450E40E945A
:10438000DB210C94D5235058BB27AA270E94DB21A0
:104390000C94D5230E949C2338F00E94A32320F084
:1043A00039F49F3F19F426F40C9472230EF4E0952F
:1043B000E7FB0C946C23E92F0E94FA2358F3BA17F9
:1043C000620773078407950720F079F4A6F50C942B
:1043D0001C240EF4E0950B2EBA2FA02D0B01B90171
:1043E00090010C01CA01A0011124FF27591B99F06B
:1043F000593F50F4503E68F11A16F040A22F232F77
:10440000342F4427585FF3CF469537952795A795C6
:10441000F0405395C9F77EF41F16BA0B620B730B6D
:10442000840BBAF09150A1F0FF0FBB1F661F771FDE
:10443000881FC2F70EC0BA0F621F731F841F48F493
:10444000879577956795B795F7959E3F08F0B0CF1C
:104450009395880F08F09927EE0F97958795089503
:104460000E94482308F481E008950E94AC23E3955C
:104470000C94E6230E944E220C94D5230E94A32381
:1044800058F00E949C2340F029F45F3F29F00C94DF
:104490006C2351110C941D240C9472230E94FA2356
:1044A00068F39923B1F3552391F3951B550BBB2763
:1044B000AA2762177307840738F09F5F5F4F220FA8
:1044C000331F441FAA1FA9F335D00E2E3AF0E0E89F
:1044D00032D091505040E695001CCAF72BD0FE2FE9
:1044E00029D0660F771F881FBB1F2617370748077D
:1044F000AB07B0E809F0BB0B802DBF01FF27935835
:104500005F4F3AF09E3F510578F00C946C230C9469
:104510001D245F3FE4F3983ED4F386957795679525
:10452000B795F7959F5FC9F7880F911D9695879569
:1045300097F90895E1E0660F771F881FBB1F621788
:1045400073078407BA0720F0621B730B840BBA0B46
:10455000EE1F88F7E09508950E94B3226894B11188
:104560000C941D2408950E94022488F09F5798F00F
:10457000B92F9927B751B0F0E1F0660F771F881F68
:10458000991F1AF0BA95C9F714C0B13091F00E9482
:104590001C24B1E008950C941C24672F782F8827E1
:1045A000B85F39F0B93FCCF3869577956795B395A9
:1045B000D9F73EF490958095709561957F4F8F4F18
:1045C0009F4F0895E89409C097FB3EF4909580951D
:1045D000709561957F4F8F4F9F4F9923A9F0F92FC9
:1045E00096E9BB279395F695879577956795B79547
:1045F000F111F8CFFAF4BB0F11F460FF1BC06F5F2D
:104600007F4F8F4F9F4F16C0882311F096E911C03E
:10461000772321F09EE8872F762F05C0662371F05F
:1046200096E8862F70E060E02AF09A95660F771F73
:10463000881FDAF7880F9695879597F908950E9455
:10464000E2249701A801AA270E94DB210C94D5231C
:10465000DF93CF931F930F938B01EC01E4E0F1E024
:104660000E9475230E94D5239801AE018B01EC01B5
:1046700060E070E080E89FE30E94C3210E946E2505
:104680009801AE010F911F91CF91DF910C94E2241C
:10469000990F0008550FAA0BE0E8FEEF1616170653
:1046A000E807F907C0F012161306E407F50798F0BB
:1046B000621B730B840B950B39F40A2661F0232BD4
:1046C000242B252B21F408950A2609F4A140A69550
:1046D0008FEF811D811D089597F99F6780E870E035
:1046E00060E008959FEF80EC0895DF93CF931F93D0
:1046F0000F93FF92EF92DF927B018C01689406C0CA
:10470000DA2EEF010E94E224FE01E894A5912591A2
:10471000359145915591A6F3EF010E94DB21FE01F1
:104720009701A801DA9469F7DF90EF90FF900F915D
:104730001F91CF91DF91089500240A941616170651
:1047400018060906089500240A9412161306140682
:10475000050608950C9472230E940224D8F3E8946D
:10476000E0E0BB279F57F0F02AED3FE049EC06C0A0
:10477000EE0FBB0F661F771F881F28F0B23A620743
:104780007307840728F0B25A620B730B840BE3950E
:104790009A9572F7803830F49A95BB0F661F771F91
:1047A000881FD2F790480C94F425092E0394000C2E
:1047B00011F4882352F0BB0F40F4BF2B11F460FFBB
:1047C00004C06F5F7F4F8F4F9F4F0895EF93E0FFBF
:1047D00007C0A2EA2AED3FE049EC5FEB0E94DB2133
:1047E0000E94D5230F90039401FC9058ECE2F1E075
:1047F0000C94072657FD9058440F551F59F05F3F02
:1048000071F04795880F97FB991F61F09F3F79F0F2
:1048100087950895121613061406551FF2CF469574
:10482000F1DF08C0161617061806991FF1CF8695F6
:104830007105610508940895E894BB2766277727DA
:10484000CB0197F908950E94482308F48FEF08954B
:104850000E949C2329F00E94A32311F00C94722340
:104860000C946C23B901CA010C94F2259F775F77F1
:104870000E94FA2368F39923A9F35523A9F3FF278C
:10488000951758F4E52FE91BED3060F75E3B10F00B
:10489000F1E41CC09034E0F40AC0E92FE51BED30D0
:1048A00018F79E3B10F0F1E411C0503488F4F9EA97
:1048B00088232AF09A95660F771F881FDAF744231A
:1048C0002AF05A95220F331F441FDAF79F1B5F1BF4
:1048D000FF931F930F93FF92EF9279018A01BB27F9
:1048E000AB2F9B01AC010E94E5249701A801BF9367
:1048F0007B018C01AA27BA2FB901CA010E94E524C5
:10490000AF919701A801EF90FF900F911F910E9426
:10491000DB210E94D5230E946E254F9140FF089510
:10492000552747FD50950C9499240C946C230C94B6
:10493000F2250E940224D8F39923C9F3940F511D44
:10494000A3F39150504094F059F0882332F0660F51
:10495000771F881F91505040C1F79E3F51052CF79B
:10496000880F911D9695879597F908955F3FACF054
:10497000983E9CF0BB27869577956795B79508F488
:10498000B1609395C1F7BB0F58F711F460FFE8CF02
:104990006F5F7F4F8F4F9F4FE3CF0C941D240E947A
:1049A000E2240C94D5230E949C2338F00E94A32378
:1049B00020F0952311F00C946C230C947223112495
:1049C0000C941D240E94FA2370F3959FC1F3950F58
:1049D00050E0551F629FF001729FBB27F00DB11D83
:1049E000639FAA27F00DB11DAA1F649F6627B00D13
:1049F000A11D661F829F2227B00DA11D621F739FFC
:104A0000B00DA11D621F839FA00D611D221F749F09
:104A10003327A00D611D231F849F600D211D822F50
:104A2000762F6A2F11249F5750409AF0F1F0882377
:104A30004AF0EE0FFF1FBB1F661F771F881F9150A4
:104A40005040A9F79E3F510580F00C946C230C94C4
:104A50001D245F3FE4F3983ED4F3869577956795E0
:104A6000B795F795E7959F5FC1F7FE2B880F911DCE
:104A70009695879597F908950E940224E8F09E374D
:104A8000E8F09639B8F49E3848F4672F782F8827D5
:104A9000985FF9CF86957795679593959539D0F37B
:104AA000B62FB1706B0F711D811D20F4879577951E
:104AB000679593950C94D7250C94F2250C941D249E
:104AC0009F930E94AC230F9007FCEE5F0C94E623AB
:104AD00019F416F40C9472230C94F2250E9402240B
:104AE000B8F39923C9F3B6F39F57550B87FF0E947C
:104AF00000260024A0E640EA90018058569597953C
:104B000028F4805C660F771F881F20F02617370770
:104B1000480730F4621B730B840B202931294A2B80
:104B2000A69517940794202531254A2758F7660F34
:104B3000771F881F20F026173707480730F4620BCD
:104B4000730B840B200D311D411DA09581F7B90118
:104B5000842F9158880F9695879508959B01AC01F5
:104B60000C94CF24DF93D92F0E94AC23E695D795E0
:104B70002AED3FE049E45FE3B33A62077307840735
:104B80009507D7953AF0A2EA49EC90680E94DB219C
:104B90000E94D523EAE4F1E00E940726DD0F13F01E
:104BA0000E941B26DD0F0BF49058DF910895882397
:104BB00071F4772321F09850872B762F07C0662356
:104BC00011F499270DC09051862B70E060E02AF017
:104BD0009A95660F771F881FDAF7880F9695879545
:104BE00097F908959F3F31F0915020F4879577957C
:104BF0006795B795880F911D9695879597F90895B4
:104C000091505040660F771F881FD2F708959F93E9
:104C10008F937F936F93FF93EF939B01AC010E945F
:104C2000CF24EF91FF910E9475232F913F914F91D7
:104C30005F910C94CF249B01AC0160E070E080E8B0
:104C40009FE30C943A222F923F924F925F926F9281
:104C50007F928F929F92AF92BF92CF92DF92EF920C
:104C6000FF920F931F93CF93DF93CDB7DEB760977B
:104C70000FB6F894DEBF0FBECDBF7C011B016A01E9
:104C8000FC0117821682838181FF44C39E012F5F3E
:104C90003F4F3901F7019381F10193FD859193FF16
:104CA00081911F01882309F431C3853239F493FDC2
:104CB000859193FF81911F01853239F4B70190E00E
:104CC0000E94EA2B56016501E5CF10E0512C912C92
:104CD000FFE1F915D8F08B3279F038F4803279F0B1
:104CE0008332A1F4F92DF0612EC08D3261F0803352
:104CF00069F4292D21602DC0392D3260932E892D24
:104D00008460982E2AC0E92DE86015C097FC2DC05C
:104D100020ED280F2A3088F496FE06C03AE0139F53
:104D2000200D1124122F19C08AE0589E200D112445
:104D3000522EE92DE0629E2E10C08E3231F496FC88
:104D4000E5C2F92DF0649F2E08C08C3621F4292D80
:104D50002068922E02C0883641F4F10193FD8591BE
:104D600093FF81911F018111B3CF9BEB980F93307B
:104D700020F4992D9061805E07C09BE9980F9330D5
:104D800008F066C1992D9F7E96FF16E09F73992EBD
:104D9000853619F49064992E08C0863621F4392F8F
:104DA0003068932E02C01111115097FE07C01C33BA
:104DB00050F444244394410E27E00BC0183038F0DF
:104DC00027E017E005C027E09CE3492E02C0212F11
:104DD000412C560184E0A80EB11CF601608171815E
:104DE00082819381042DA3010E94F32A6C01F98131
:104DF000FC87F0FF02C0F3FF06C091FC06C092FEE4
:104E000006C000E205C00DE203C00BE201C000E0F5
:104E10008C858C7019F001115AC29BC297FE10C08C
:104E20004C0CFC85F4FF04C08A81813309F44A9458
:104E3000141474F528E0241578F588E0482E2CC069
:104E400096FC2AC0812F90E08C159D059CF03CEFCC
:104E5000C3163FEFD30674F0892D8068982E0AC0E0
:104E6000E2E0F0E0EC0FFD1FE10FF11D80818033E7
:104E700019F411501111F4CF97FE0EC0442443943D
:104E8000410E812F90E0C816D9062CF41C1904C0DD
:104E90004424439401C010E097FE06C01C141D0476
:104EA00034F4C601019605C085E090E002C081E0BF
:104EB00090E001110196112331F0212F30E02F5F96
:104EC0003F4F820F931F252D30E08217930714F474
:104ED000581A01C0512C892D897049F4552039F098
:104EE000B70180E290E00E94EA2B5A94F7CF0023AA
:104EF00029F0B701802F90E00E94EA2B93FC09C0B3
:104F0000552039F0B70180E390E00E94EA2B5A94D3
:104F1000F7CF97FE4CC04601D7FE02C0812C912CE2
:104F2000C60188199909F301E80FF91FFE87ED877B
:104F3000960124193109388B2F87012F10E0119524
:104F4000019511093FEF8316930629F4B7018EE20C
:104F500090E00E94EA2BC814D9044CF08F85988900
:104F60008815990524F4ED85FE85818101C080E3D3
:104F7000F1E08F1A91082D853E852F5F3F4F3E87C8
:104F80002D87801691062CF0B70190E00E94EA2B45
:104F9000D9CFC814D90441F49A81963320F49533BB
:104FA00019F43C8534FF81E3B70190E04EC08A815B
:104FB000813319F09C859F7E9C87B70190E00E9409
:104FC000EA2B111105C094FC18C085E690E017C0CB
:104FD000B7018EE290E00E94EA2B1E5F82E001E0C2
:104FE000080FF301E80FF11D8081B70190E00E94E6
:104FF000EA2B802F0113F3CFE6CF85E490E0B701D1
:105000000E94EA2BD7FC06C0C114D10441F4EC8500
:10501000E4FF05C0D194C194D1088DE201C08BE2B8
:10502000B70190E00E94EA2B80E32AE0C216D10487
:105030002CF08F5FFAE0CF1AD108F7CFB70190E0DC
:105040000E94EA2BB701C601C0960E94EA2B54C108
:10505000833631F0833779F0833509F056C020C0AC
:10506000560132E0A30EB11CF6018081898301E074
:1050700010E0630112C05601F2E0AF0EB11CF60160
:10508000C080D18096FE03C0612F70E002C06FEF38
:105090007FEFC6010E94DF2B8C01F92DFF7714C032
:1050A000560122E0A20EB11CF601C080D18096FE0E
:1050B00003C0612F70E002C06FEF7FEFC6010E9456
:1050C000CB2B8C01F92DF0689F2EF3FD1AC0852D96
:1050D00090E008171907A8F4B70180E290E00E9459
:1050E000EA2B5A94F4CFF60197FC859197FE8191B3
:1050F0006F01B70190E00E94EA2B51105A940150C1
:1051000011090115110579F7F7C0843611F08936B8
:1051100061F5560197FE09C024E0A20EB11CF6010C
:1051200060817181828193810AC0F2E0AF0EB11C6F
:10513000F60160817181072E000C880B990BF92D07
:10514000FF769F2E97FF09C0909580957095619589
:105150007F4F8F4F9F4FF0689F2E2AE030E0A301D2
:105160000E94982CC82EC6183FC0092D853721F4FF
:105170000F7E2AE030E01DC0097F8F3691F018F4D1
:10518000883559F0C3C0803719F0883711F0BEC098
:10519000006104FF09C0046007C094FE08C00660F7
:1051A00006C028E030E005C020E130E002C020E188
:1051B00032E0560107FF09C084E0A80EB11CF601D9
:1051C000608171818281938108C0F2E0AF0EB11CD1
:1051D000F6016081718180E090E0A3010E94982C2B
:1051E000C82EC6180F77902E96FE0BC0092D0E7F85
:1051F000C11650F494FE0AC092FC08C0092D0E7E20
:1052000005C0DC2C092D03C0DC2C01C0D12E04FF0D
:105210000DC0FE01EC0DF11D8081803311F4097E7B
:1052200009C002FF06C0D394D39404C0802F8678AF
:1052300009F0D39403FD11C000FF06C01C2DD51446
:1052400080F4150D1D190DC0D51458F4B70180E276
:1052500090E00E94EA2BD394F7CFD51410F45D1898
:1052600001C0512C04FF10C0B70180E390E00E9400
:10527000EA2B02FF17C001FD03C088E790E002C0DF
:1052800088E590E0B7010CC0802F867859F001FFC7
:1052900002C08BE201C080E207FD8DE2B70190E021
:1052A0000E94EA2BC11638F4B70180E390E00E9417
:1052B000EA2B1150F7CFCA94F301EC0DF11D808158
:1052C000B70190E00E94EA2BC110F5CF15C0F4E0C1
:1052D000F51560F584E0581A93FE1FC0011127C030
:1052E0002C8523FF2AC00EE611E0392D3071932E54
:1052F000F8018491811124C0552009F4E4CCB70150
:1053000080E290E00E94EA2B5A94F6CFF701868162
:10531000978126C08FEF9FEF23C0B70180E290E016
:105320000E94EA2B5A945110F8CFD8CF512CB701D4
:10533000802F90E00E94EA2BD3CF02E711E0D5CF77
:1053400091108052B70190E00E94EA2B0F5F1F4F2F
:10535000CFCF23E0251510F483E0BDCF512CC0CF73
:1053600060960FB6F894DEBF0FBECDBFDF91CF9130
:105370001F910F91FF90EF90DF90CF90BF90AF9073
:105380009F908F907F906F905F904F903F902F9065
:105390000895EE0FFF1F0024001C0BBE0790F6912E
:1053A000E02D09940F931F93CF93DF9382309105E3
:1053B00010F482E090E0E091CE0DF091CF0D20E06E
:1053C00030E0A0E0B0E0309719F1408151810281D6
:1053D000138148175907C8F08417950769F4109787
:1053E00031F012960C93129713961C9327C00093DA
:1053F000CE0D1093CF0D22C02115310519F04217A3
:10540000530718F49A01BD01EF01DF01F801DBCF6A
:1054100021153105F9F0281B390B2430310580F4B2
:105420008A819B816115710521F0FB019383828341
:1054300004C09093CF0D8093CE0DFE01329644C0F0
:10544000FE01E20FF31F81939193225031093983BA
:1054500028833AC02091CC0D3091CD0D232B41F4FF
:1054600020910202309103023093CD0D2093CC0D98
:1054700020910002309101022115310541F42DB730
:105480003EB74091040250910502241B350BE09178
:10549000CC0DF091CD0DE217F307A0F42E1B3F0BBE
:1054A0002817390778F0AC014E5F5F4F2417350796
:1054B00048F04E0F5F1F5093CD0D4093CC0D81935C
:1054C000919302C0E0E0F0E0CF01DF91CF911F9116
:1054D0000F910895CF93DF93009709F481C0FC01E9
:1054E000329713821282A091CE0DB091CF0D1097FA
:1054F00081F420813181820F931F2091CC0D309156
:10550000CD0D2817390751F5F093CD0DE093CC0D53
:1055100067C0ED0120E030E0CE17DF0740F44A819C
:105520005B819E0141155105F1F0EA01F5CFD3836E
:10553000C28340815181840F951FC817D90759F440
:1055400088819981840F951F0296918380838A8137
:105550009B81938382832115310529F4F093CF0D2C
:10556000E093CE0D3DC0E901FB83EA834991599157
:10557000C40FD51FEC17FD0761F480819181840F62
:10558000951F0296E90199838883828193819B8389
:105590008A83E0E0F0E012968D919C91139700973A
:1055A00019F0FD01DC01F7CF8D919C9111979D01C0
:1055B0002E5F3F4F820F931F2091CC0D3091CD0D68
:1055C0002817390769F4309729F41092CF0D1092FB
:1055D000CE0D02C013821282B093CD0DA093CC0DDC
:1055E000DF91CF910895283008F027E03327DA01C2
:1055F000990F311D87FD916000966105710539F4A1
:1056000032602E5F3D9330E32A95E1F708959F3F86
:1056100030F080387105610509F03C5F3C5F3D93D7
:10562000913008F08068911DDF93CF931F930F9303
:10563000FF92EF92192F987F9695E92F9695969560
:10564000E90FFF27E053FE4F99273327EE24FF246D
:10565000A701E70105900894079428F4360FE71E88
:10566000F81E491F511D660F771F881F991F06944A
:10567000A1F70590079428F4E70EF81E491F561F5E
:10568000C11D770F881F991F661F0694A1F705900B
:10569000079428F4F80E491F561FC71FD11D880F05
:1056A000991F661F771F0694A1F70590079420F4B1
:1056B000490F561FC71FD81F990F661F771F881FD6
:1056C0000694A9F784911095177041F0D695C79567
:1056D00057954795F794E7941A95C1F7E6E7F1E0F7
:1056E00068941590159135916591959105907FE29B
:1056F0007395E118F10A430B560BC90BD009C0F79B
:10570000E10CF11E431F561FC91FD01D7EF47033DC
:1057100011F48A95E6CFE894015030F0080F0AF4AE
:105720000027021708F4202F2395022F7A3328F040
:1057300079E37D932A95E9F710C07D932A9589F640
:10574000069497956795379517951794E118F10A80
:10575000430B560BC90BD00998F023957E91739596
:105760007A3308F070E37C932013B8F77E91706170
:105770007D9330F0839571E37D9370E32A95E1F793
:105780001124EF90FF900F911F91CF91DF919927F6
:1057900087FD90950895FC010590615070400110BF
:1057A000D8F7809590958E0F9F1F0895FB01DC011F
:1057B00002C001900D9241505040D8F70895FC016D
:1057C0006150704001900110D8F7809590958E0F30
:1057D0009F1F08950F931F93CF93DF93FB012381A6
:1057E00021FD03C08FEF9FEF2CC022FF16C0468122
:1057F0005781248135814217530744F4A081B18138
:105800009D012F5F3F4F318320838C932681378109
:105810002F5F3F4F3783268314C08B01EC01FB01C0
:105820000084F185E02D0995892BE1F6D8011696C3
:105830008D919C911797019617969C938E9316972E
:10584000CE01DF91CF911F910F9108950F931F9378
:10585000CF93DF93CDB7DEB72E970FB6F894DEBFA8
:105860000FBECDBF8C01FA0186E08C831A830983B9
:1058700077FF02C060E070E8CB0101979E838D83C3
:10588000A901BF01CE0101960E9423264D815E81B0
:1058900057FD0AC02F813885421753070CF49A012F
:1058A000F801E20FF31F10822E960FB6F894DEBFB8
:1058B0000FBECDBFDF91CF911F910F9108950F9330
:1058C0001F93CF93DF93CDB7DEB72E970FB6F89423
:1058D000DEBF0FBECDBF8C01FA018EE08C831A8330
:1058E000098377FF02C060E070E8CB0101979E83D7
:1058F0008D83A901BF01CE0101960E9423264D810F
:105900005E8157FD0AC02F813885421753070CF47A
:105910009A01F801E20FF31F10822E960FB6F89449
:10592000DEBF0FBECDBFDF91CF911F910F910895C4
:10593000FA01AA27283051F1203181F1E8946F93C0
:105940006E7F6E5F7F4F8F4F9F4FAF4FB1E03ED066
:10595000B4E03CD0670F781F891F9A1FA11D680F04
:10596000791F8A1F911DA11D6A0F711D811D911D37
:10597000A11D20D009F468943F912AE0269F1124AC
:105980003019305D3193DEF6CF010895462F477010
:10599000405D4193B3E00FD0C9F7F6CF462F4F706B
:1059A000405D4A3318F0495D31FD4052419302D0C9
:1059B000A9F7EACFB4E0A69597958795779567956F
:1059C000BA95C9F700976105710508959B01AC016F
:1059D0000A2E06945795479537952795BA95C9F796
:1059E000620F731F841F951FA01D0895F894FFCFA9
:1059F0000000D00D200000803B45030003000300A1
:105A0000030000007AC300007AC30603000300010C
:105A10000000000000000000DB0FC93F0100000192
:105A2000008E0DFFFF050000803F00010200020014
:105A300000010100000200020100746F57616C6CEC
:105A40002025640073686F77696E673A20256400CB
:105A5000646972546F476F2025640077616C6C44F1
:105A60002069732066616C736500783A2025642C88
:105A700020793A2025640049276D206F7574210034
:105A800057412025642C20574425642C2057572546
:105A9000642C2057532564004578706C6F726174D4
:105AA000696F6E206973206F7665722E20636F7543
:105AB0006C646E27742066696E642061207761795A
:105AC000206F757421004D6F76654F70743A204CCD
:105AD0002025642C20522025640072656365697658
